{
  "contractName": "PublicCredential",
  "abi": [
    {
      "inputs": [],
      "stateMutability": "nonpayable",
      "type": "constructor"
    },
    {
      "anonymous": false,
      "inputs": [
        {
          "indexed": true,
          "internalType": "bytes32",
          "name": "hashId",
          "type": "bytes32"
        },
        {
          "indexed": false,
          "internalType": "string",
          "name": "courseId",
          "type": "string"
        }
      ],
      "name": "CredentialIssued",
      "type": "event"
    },
    {
      "anonymous": false,
      "inputs": [
        {
          "indexed": true,
          "internalType": "bytes32",
          "name": "hashId",
          "type": "bytes32"
        },
        {
          "indexed": false,
          "internalType": "string",
          "name": "courseId",
          "type": "string"
        }
      ],
      "name": "CredentialRevoked",
      "type": "event"
    },
    {
      "inputs": [
        {
          "internalType": "bytes32",
          "name": "",
          "type": "bytes32"
        }
      ],
      "name": "credentialsByHash",
      "outputs": [
        {
          "internalType": "string",
          "name": "studentName",
          "type": "string"
        },
        {
          "internalType": "string",
          "name": "courseName",
          "type": "string"
        },
        {
          "internalType": "string",
          "name": "issueDate",
          "type": "string"
        },
        {
          "internalType": "string",
          "name": "courseId",
          "type": "string"
        },
        {
          "internalType": "string",
          "name": "institutionName",
          "type": "string"
        },
        {
          "internalType": "string",
          "name": "institutionSignature",
          "type": "string"
        },
        {
          "internalType": "string",
          "name": "studentDID",
          "type": "string"
        },
        {
          "internalType": "bool",
          "name": "revoked",
          "type": "bool"
        }
      ],
      "stateMutability": "view",
      "type": "function",
      "constant": true
    },
    {
      "inputs": [],
      "name": "issuer",
      "outputs": [
        {
          "internalType": "address",
          "name": "",
          "type": "address"
        }
      ],
      "stateMutability": "view",
      "type": "function",
      "constant": true
    },
    {
      "inputs": [
        {
          "internalType": "string",
          "name": "studentName",
          "type": "string"
        },
        {
          "internalType": "string",
          "name": "courseName",
          "type": "string"
        },
        {
          "internalType": "string",
          "name": "issueDate",
          "type": "string"
        },
        {
          "internalType": "string",
          "name": "courseId",
          "type": "string"
        },
        {
          "internalType": "string",
          "name": "institutionName",
          "type": "string"
        },
        {
          "internalType": "string",
          "name": "institutionSignature",
          "type": "string"
        },
        {
          "internalType": "string",
          "name": "studentDID",
          "type": "string"
        }
      ],
      "name": "issueCredential",
      "outputs": [],
      "stateMutability": "nonpayable",
      "type": "function"
    },
    {
      "inputs": [
        {
          "internalType": "bytes32",
          "name": "hashId",
          "type": "bytes32"
        }
      ],
      "name": "revokeCredential",
      "outputs": [],
      "stateMutability": "nonpayable",
      "type": "function"
    },
    {
      "inputs": [
        {
          "internalType": "bytes32",
          "name": "hashId",
          "type": "bytes32"
        }
      ],
      "name": "verifyCredential",
      "outputs": [
        {
          "internalType": "string",
          "name": "",
          "type": "string"
        },
        {
          "internalType": "string",
          "name": "",
          "type": "string"
        },
        {
          "internalType": "string",
          "name": "",
          "type": "string"
        },
        {
          "internalType": "string",
          "name": "",
          "type": "string"
        },
        {
          "internalType": "string",
          "name": "",
          "type": "string"
        },
        {
          "internalType": "string",
          "name": "",
          "type": "string"
        },
        {
          "internalType": "string",
          "name": "",
          "type": "string"
        },
        {
          "internalType": "bool",
          "name": "",
          "type": "bool"
        }
      ],
      "stateMutability": "view",
      "type": "function",
      "constant": true
    }
  ],
  "bytecode": "0x608060405234801561001057600080fd5b5033600160006101000a81548173ffffffffffffffffffffffffffffffffffffffff021916908373ffffffffffffffffffffffffffffffffffffffff1602179055506114d6806100616000396000f3fe608060405234801561001057600080fd5b50600436106100575760003560e01c80631d1438481461005c5780634dbf87cc1461007a578063ca6eec78146100b1578063dbe4b101146100cd578063ed62b91514610104575b600080fd5b610064610120565b6040516100719190611193565b60405180910390f35b610094600480360381019061008f9190610e51565b610146565b6040516100a89897969594939291906111d0565b60405180910390f35b6100cb60048036038101906100c69190610e51565b6105d1565b005b6100e760048036038101906100e29190610e51565b6106de565b6040516100fb9897969594939291906111d0565b60405180910390f35b61011e60048036038101906101199190610e7a565b610aeb565b005b600160009054906101000a900473ffffffffffffffffffffffffffffffffffffffff1681565b60608060608060608060606000806000808b815260200190815260200160002060405180610100016040529081600082018054610182906113e8565b80601f01602080910402602001604051908101604052809291908181526020018280546101ae906113e8565b80156101fb5780601f106101d0576101008083540402835291602001916101fb565b820191906000526020600020905b8154815290600101906020018083116101de57829003601f168201915b50505050508152602001600182018054610214906113e8565b80601f0160208091040260200160405190810160405280929190818152602001828054610240906113e8565b801561028d5780601f106102625761010080835404028352916020019161028d565b820191906000526020600020905b81548152906001019060200180831161027057829003601f168201915b505050505081526020016002820180546102a6906113e8565b80601f01602080910402602001604051908101604052809291908181526020018280546102d2906113e8565b801561031f5780601f106102f45761010080835404028352916020019161031f565b820191906000526020600020905b81548152906001019060200180831161030257829003601f168201915b50505050508152602001600382018054610338906113e8565b80601f0160208091040260200160405190810160405280929190818152602001828054610364906113e8565b80156103b15780601f10610386576101008083540402835291602001916103b1565b820191906000526020600020905b81548152906001019060200180831161039457829003601f168201915b505050505081526020016004820180546103ca906113e8565b80601f01602080910402602001604051908101604052809291908181526020018280546103f6906113e8565b80156104435780601f1061041857610100808354040283529160200191610443565b820191906000526020600020905b81548152906001019060200180831161042657829003601f168201915b5050505050815260200160058201805461045c906113e8565b80601f0160208091040260200160405190810160405280929190818152602001828054610488906113e8565b80156104d55780601f106104aa576101008083540402835291602001916104d5565b820191906000526020600020905b8154815290600101906020018083116104b857829003601f168201915b505050505081526020016006820180546104ee906113e8565b80601f016020809104026020016040519081016040528092919081815260200182805461051a906113e8565b80156105675780601f1061053c57610100808354040283529160200191610567565b820191906000526020600020905b81548152906001019060200180831161054a57829003601f168201915b505050505081526020016007820160009054906101000a900460ff1615151515815250509050806000015181602001518260400151836060015184608001518560a001518660c001518760e001519850985098509850985098509850985050919395975091939597565b600160009054906101000a900473ffffffffffffffffffffffffffffffffffffffff1673ffffffffffffffffffffffffffffffffffffffff163373ffffffffffffffffffffffffffffffffffffffff1614610661576040517f08c379a0000000000000000000000000000000000000000000000000000000008152600401610658906112a1565b60405180910390fd5b600160008083815260200190815260200160002060070160006101000a81548160ff021916908315150217905550807f8a7dd18f81574794be0ac8390928b9b5988992a941406746e60f37ea696126d76000808481526020019081526020016000206003016040516106d3919061127f565b60405180910390a250565b6000602052806000526040600020600091509050806000018054610701906113e8565b80601f016020809104026020016040519081016040528092919081815260200182805461072d906113e8565b801561077a5780601f1061074f5761010080835404028352916020019161077a565b820191906000526020600020905b81548152906001019060200180831161075d57829003601f168201915b50505050509080600101805461078f906113e8565b80601f01602080910402602001604051908101604052809291908181526020018280546107bb906113e8565b80156108085780601f106107dd57610100808354040283529160200191610808565b820191906000526020600020905b8154815290600101906020018083116107eb57829003601f168201915b50505050509080600201805461081d906113e8565b80601f0160208091040260200160405190810160405280929190818152602001828054610849906113e8565b80156108965780601f1061086b57610100808354040283529160200191610896565b820191906000526020600020905b81548152906001019060200180831161087957829003601f168201915b5050505050908060030180546108ab906113e8565b80601f01602080910402602001604051908101604052809291908181526020018280546108d7906113e8565b80156109245780601f106108f957610100808354040283529160200191610924565b820191906000526020600020905b81548152906001019060200180831161090757829003601f168201915b505050505090806004018054610939906113e8565b80601f0160208091040260200160405190810160405280929190818152602001828054610965906113e8565b80156109b25780601f10610987576101008083540402835291602001916109b2565b820191906000526020600020905b81548152906001019060200180831161099557829003601f168201915b5050505050908060050180546109c7906113e8565b80601f01602080910402602001604051908101604052809291908181526020018280546109f3906113e8565b8015610a405780601f10610a1557610100808354040283529160200191610a40565b820191906000526020600020905b815481529060010190602001808311610a2357829003601f168201915b505050505090806006018054610a55906113e8565b80601f0160208091040260200160405190810160405280929190818152602001828054610a81906113e8565b8015610ace5780601f10610aa357610100808354040283529160200191610ace565b820191906000526020600020905b815481529060010190602001808311610ab157829003601f168201915b5050505050908060070160009054906101000a900460ff16905088565b600160009054906101000a900473ffffffffffffffffffffffffffffffffffffffff1673ffffffffffffffffffffffffffffffffffffffff163373ffffffffffffffffffffffffffffffffffffffff1614610b7b576040517f08c379a0000000000000000000000000000000000000000000000000000000008152600401610b72906112a1565b60405180910390fd5b600087878787878787604051602001610b9a979695949392919061112e565b604051602081830303815290604052805190602001209050604051806101000160405280898152602001888152602001878152602001868152602001858152602001848152602001838152602001600015158152506000808381526020019081526020016000206000820151816000019080519060200190610c1d929190610d31565b506020820151816001019080519060200190610c3a929190610d31565b506040820151816002019080519060200190610c57929190610d31565b506060820151816003019080519060200190610c74929190610d31565b506080820151816004019080519060200190610c91929190610d31565b5060a0820151816005019080519060200190610cae929190610d31565b5060c0820151816006019080519060200190610ccb929190610d31565b5060e08201518160070160006101000a81548160ff021916908315150217905550905050807f341cac654a14b9e14ec65500ee4876b99c950a36ac2cd7ad3284e2b847e8967986604051610d1f91906111ae565b60405180910390a25050505050505050565b828054610d3d906113e8565b90600052602060002090601f016020900481019282610d5f5760008555610da6565b82601f10610d7857805160ff1916838001178555610da6565b82800160010185558215610da6579182015b82811115610da5578251825591602001919060010190610d8a565b5b509050610db39190610db7565b5090565b5b80821115610dd0576000816000905550600101610db8565b5090565b6000610de7610de2846112f2565b6112c1565b905082815260208101848484011115610dff57600080fd5b610e0a8482856113a6565b509392505050565b600081359050610e2181611489565b92915050565b600082601f830112610e3857600080fd5b8135610e48848260208601610dd4565b91505092915050565b600060208284031215610e6357600080fd5b6000610e7184828501610e12565b91505092915050565b600080600080600080600060e0888a031215610e9557600080fd5b600088013567ffffffffffffffff811115610eaf57600080fd5b610ebb8a828b01610e27565b975050602088013567ffffffffffffffff811115610ed857600080fd5b610ee48a828b01610e27565b965050604088013567ffffffffffffffff811115610f0157600080fd5b610f0d8a828b01610e27565b955050606088013567ffffffffffffffff811115610f2a57600080fd5b610f368a828b01610e27565b945050608088013567ffffffffffffffff811115610f5357600080fd5b610f5f8a828b01610e27565b93505060a088013567ffffffffffffffff811115610f7c57600080fd5b610f888a828b01610e27565b92505060c088013567ffffffffffffffff811115610fa557600080fd5b610fb18a828b01610e27565b91505092959891949750929550565b610fc98161135e565b82525050565b610fd881611370565b82525050565b6000610fe982611337565b610ff38185611342565b93506110038185602086016113b5565b61100c81611478565b840191505092915050565b600061102282611337565b61102c8185611353565b935061103c8185602086016113b5565b80840191505092915050565b60008154611055816113e8565b61105f8186611342565b9450600182166000811461107a576001811461108c576110bf565b60ff19831686526020860193506110bf565b61109585611322565b60005b838110156110b757815481890152600182019150602081019050611098565b808801955050505b50505092915050565b60006110d5602283611342565b91507f4f6e6c79206973737565722063616e2063616c6c20746869732066756e63746960008301527f6f6e0000000000000000000000000000000000000000000000000000000000006020830152604082019050919050565b600061113a828a611017565b91506111468289611017565b91506111528288611017565b915061115e8287611017565b915061116a8286611017565b91506111768285611017565b91506111828284611017565b915081905098975050505050505050565b60006020820190506111a86000830184610fc0565b92915050565b600060208201905081810360008301526111c88184610fde565b905092915050565b60006101008201905081810360008301526111eb818b610fde565b905081810360208301526111ff818a610fde565b905081810360408301526112138189610fde565b905081810360608301526112278188610fde565b9050818103608083015261123b8187610fde565b905081810360a083015261124f8186610fde565b905081810360c08301526112638185610fde565b905061127260e0830184610fcf565b9998505050505050505050565b600060208201905081810360008301526112998184611048565b905092915050565b600060208201905081810360008301526112ba816110c8565b9050919050565b6000604051905081810181811067ffffffffffffffff821117156112e8576112e7611449565b5b8060405250919050565b600067ffffffffffffffff82111561130d5761130c611449565b5b601f19601f8301169050602081019050919050565b60008190508160005260206000209050919050565b600081519050919050565b600082825260208201905092915050565b600081905092915050565b600061136982611386565b9050919050565b60008115159050919050565b6000819050919050565b600073ffffffffffffffffffffffffffffffffffffffff82169050919050565b82818337600083830152505050565b60005b838110156113d35780820151818401526020810190506113b8565b838111156113e2576000848401525b50505050565b6000600282049050600182168061140057607f821691505b602082108114156114145761141361141a565b5b50919050565b7f4e487b7100000000000000000000000000000000000000000000000000000000600052602260045260246000fd5b7f4e487b7100000000000000000000000000000000000000000000000000000000600052604160045260246000fd5b6000601f19601f8301169050919050565b6114928161137c565b811461149d57600080fd5b5056fea264697066735822122050471e98a27f43d1d77ebcd8cbdf6a9ca735a49e8c8875c1fb5166eaea15786d64736f6c63430008000033",
  "immutableReferences": {},
  "source": "// SPDX-License-Identifier: MIT\r\npragma solidity ^0.8.0;\r\n\r\ncontract PublicCredential {\r\n    struct Credential {\r\n        string studentName;\r\n        string courseName;\r\n        string issueDate;\r\n        string courseId;\r\n        string institutionName;\r\n        string institutionSignature;\r\n        string studentDID;\r\n        bool revoked;\r\n    }\r\n    mapping(bytes32 => Credential) public credentialsByHash;\r\n    address public issuer;\r\n    event CredentialIssued(bytes32 indexed hashId, string courseId);\r\n    event CredentialRevoked(bytes32 indexed hashId, string courseId);\r\n    modifier onlyIssuer() {\r\n        require(msg.sender == issuer, \"Only issuer can call this function\");\r\n        _;\r\n    }\r\n    constructor() {\r\n        issuer = msg.sender;\r\n    }\r\n    function issueCredential(\r\n        string memory studentName, \r\n        string memory courseName, \r\n        string memory issueDate,\r\n        string memory courseId,\r\n        string memory institutionName,\r\n        string memory institutionSignature,\r\n        string memory studentDID\r\n    ) public onlyIssuer {\r\n        bytes32 hashId = keccak256(abi.encodePacked(studentName, courseName, issueDate, courseId, institutionName, institutionSignature, studentDID));\r\n        credentialsByHash[hashId] = Credential(\r\n            studentName, \r\n            courseName, \r\n            issueDate, \r\n            courseId,\r\n            institutionName, \r\n            institutionSignature, \r\n            studentDID, \r\n            false\r\n        );\r\n        \r\n        emit CredentialIssued(hashId, courseId);\r\n    }\r\n    function revokeCredential(bytes32 hashId) public onlyIssuer {\r\n        credentialsByHash[hashId].revoked = true;\r\n        emit CredentialRevoked(hashId, credentialsByHash[hashId].courseId);\r\n    }\r\n    function verifyCredential(bytes32 hashId) public view returns (\r\n        string memory, string memory, string memory, \r\n        string memory, string memory, string memory, string memory, bool) {\r\n        Credential memory cred = credentialsByHash[hashId];\r\n        return (\r\n            cred.studentName, \r\n            cred.courseName, \r\n            cred.issueDate, \r\n            cred.courseId, \r\n            cred.institutionName, \r\n            cred.institutionSignature, \r\n            cred.studentDID, \r\n            cred.revoked\r\n        );\r\n    }\r\n}\r\n",
  "sourcePath": "C:\\Users\\juanb\\VictoriaUniversity\\NIT6006ITThesis2\\code\\Public-zkEVM\\contracts\\PublicCredential.sol",
  "compiler": {
    "name": "solc",
    "version": "0.8.0+commit.c7dfd78e.Emscripten.clang"
  },
  "schemaVersion": "3.4.16",
  "updatedAt": "2024-09-25T03:27:49.541Z",
  "networkType": "ethereum",
  "devdoc": {
    "kind": "dev",
    "methods": {},
    "version": 1
  },
  "userdoc": {
    "kind": "user",
    "methods": {},
    "version": 1
  }
}