{
  "contractName": "DIDDocument",
  "abi": [
    {
      "inputs": [],
      "stateMutability": "nonpayable",
      "type": "constructor"
    },
    {
      "anonymous": false,
      "inputs": [
        {
          "indexed": false,
          "internalType": "string",
          "name": "did",
          "type": "string"
        },
        {
          "indexed": false,
          "internalType": "string",
          "name": "publicKey",
          "type": "string"
        }
      ],
      "name": "DIDCreated",
      "type": "event"
    },
    {
      "anonymous": false,
      "inputs": [
        {
          "indexed": false,
          "internalType": "string",
          "name": "did",
          "type": "string"
        },
        {
          "indexed": false,
          "internalType": "string",
          "name": "publicKey",
          "type": "string"
        }
      ],
      "name": "DIDUpdated",
      "type": "event"
    },
    {
      "inputs": [],
      "name": "issuer",
      "outputs": [
        {
          "internalType": "address",
          "name": "",
          "type": "address"
        }
      ],
      "stateMutability": "view",
      "type": "function",
      "constant": true
    },
    {
      "inputs": [
        {
          "internalType": "string",
          "name": "did",
          "type": "string"
        },
        {
          "internalType": "string",
          "name": "publicKey",
          "type": "string"
        },
        {
          "internalType": "string",
          "name": "controller",
          "type": "string"
        },
        {
          "internalType": "string",
          "name": "verificationMethod",
          "type": "string"
        }
      ],
      "name": "createDID",
      "outputs": [],
      "stateMutability": "nonpayable",
      "type": "function"
    },
    {
      "inputs": [
        {
          "internalType": "string",
          "name": "did",
          "type": "string"
        },
        {
          "internalType": "string",
          "name": "publicKey",
          "type": "string"
        },
        {
          "internalType": "string",
          "name": "controller",
          "type": "string"
        },
        {
          "internalType": "string",
          "name": "verificationMethod",
          "type": "string"
        }
      ],
      "name": "updateDID",
      "outputs": [],
      "stateMutability": "nonpayable",
      "type": "function"
    },
    {
      "inputs": [
        {
          "internalType": "string",
          "name": "did",
          "type": "string"
        }
      ],
      "name": "getDIDDocument",
      "outputs": [
        {
          "internalType": "string",
          "name": "",
          "type": "string"
        },
        {
          "internalType": "string",
          "name": "",
          "type": "string"
        },
        {
          "internalType": "string",
          "name": "",
          "type": "string"
        },
        {
          "internalType": "string",
          "name": "",
          "type": "string"
        }
      ],
      "stateMutability": "view",
      "type": "function",
      "constant": true
    },
    {
      "inputs": [
        {
          "internalType": "string",
          "name": "did",
          "type": "string"
        }
      ],
      "name": "didExists",
      "outputs": [
        {
          "internalType": "bool",
          "name": "",
          "type": "bool"
        }
      ],
      "stateMutability": "view",
      "type": "function",
      "constant": true
    }
  ],
  "bytecode": "0x608060405234801561001057600080fd5b5033600160006101000a81548173ffffffffffffffffffffffffffffffffffffffff021916908373ffffffffffffffffffffffffffffffffffffffff160217905550610f73806100616000396000f3fe608060405234801561001057600080fd5b50600436106100575760003560e01c80631d1438481461005c57806320dd57a91461007a578063784afc4e146100aa578063ade53cf8146100dd578063e857f180146100f9575b600080fd5b610064610115565b6040516100719190610c66565b60405180910390f35b610094600480360381019061008f91906109dd565b61013b565b6040516100a19190610c81565b60405180910390f35b6100c460048036038101906100bf91906109dd565b610172565b6040516100d49493929190610cd3565b60405180910390f35b6100f760048036038101906100f29190610a1e565b610499565b005b610113600480360381019061010e9190610a1e565b6106b6565b005b600160009054906101000a900473ffffffffffffffffffffffffffffffffffffffff1681565b6000808260405161014c9190610c4f565b908152602001604051809103902060040160009054906101000a900460ff169050919050565b6060806060806000856040516101889190610c4f565b908152602001604051809103902060040160009054906101000a900460ff166101e6576040517f08c379a00000000000000000000000000000000000000000000000000000000081526004016101dd90610d34565b60405180910390fd5b600080866040516101f79190610c4f565b90815260200160405180910390206040518060a001604052908160008201805461022090610e9c565b80601f016020809104026020016040519081016040528092919081815260200182805461024c90610e9c565b80156102995780601f1061026e57610100808354040283529160200191610299565b820191906000526020600020905b81548152906001019060200180831161027c57829003601f168201915b505050505081526020016001820180546102b290610e9c565b80601f01602080910402602001604051908101604052809291908181526020018280546102de90610e9c565b801561032b5780601f106103005761010080835404028352916020019161032b565b820191906000526020600020905b81548152906001019060200180831161030e57829003601f168201915b5050505050815260200160028201805461034490610e9c565b80601f016020809104026020016040519081016040528092919081815260200182805461037090610e9c565b80156103bd5780601f10610392576101008083540402835291602001916103bd565b820191906000526020600020905b8154815290600101906020018083116103a057829003601f168201915b505050505081526020016003820180546103d690610e9c565b80601f016020809104026020016040519081016040528092919081815260200182805461040290610e9c565b801561044f5780601f106104245761010080835404028352916020019161044f565b820191906000526020600020905b81548152906001019060200180831161043257829003601f168201915b505050505081526020016004820160009054906101000a900460ff161515151581525050905080600001518160200151826040015183606001519450945094509450509193509193565b600160009054906101000a900473ffffffffffffffffffffffffffffffffffffffff1673ffffffffffffffffffffffffffffffffffffffff163373ffffffffffffffffffffffffffffffffffffffff1614610529576040517f08c379a000000000000000000000000000000000000000000000000000000000815260040161052090610d54565b60405180910390fd5b6000846040516105399190610c4f565b908152602001604051809103902060040160009054906101000a900460ff1615610598576040517f08c379a000000000000000000000000000000000000000000000000000000000815260040161058f90610d74565b60405180910390fd5b6040518060a00160405280858152602001848152602001838152602001828152602001600115158152506000856040516105d29190610c4f565b908152602001604051809103902060008201518160000190805190602001906105fc9291906108d2565b5060208201518160010190805190602001906106199291906108d2565b5060408201518160020190805190602001906106369291906108d2565b5060608201518160030190805190602001906106539291906108d2565b5060808201518160040160006101000a81548160ff0219169083151502179055509050507f15a910d2efaf7349f437c783d73a5fc8330afad390e19ac0d6bebd5ebe1301ee84846040516106a8929190610c9c565b60405180910390a150505050565b600160009054906101000a900473ffffffffffffffffffffffffffffffffffffffff1673ffffffffffffffffffffffffffffffffffffffff163373ffffffffffffffffffffffffffffffffffffffff1614610746576040517f08c379a000000000000000000000000000000000000000000000000000000000815260040161073d90610d54565b60405180910390fd5b6000846040516107569190610c4f565b908152602001604051809103902060040160009054906101000a900460ff166107b4576040517f08c379a00000000000000000000000000000000000000000000000000000000081526004016107ab90610d34565b60405180910390fd5b6040518060a00160405280858152602001848152602001838152602001828152602001600115158152506000856040516107ee9190610c4f565b908152602001604051809103902060008201518160000190805190602001906108189291906108d2565b5060208201518160010190805190602001906108359291906108d2565b5060408201518160020190805190602001906108529291906108d2565b50606082015181600301908051906020019061086f9291906108d2565b5060808201518160040160006101000a81548160ff0219169083151502179055509050507fef928790e3ba239e686d4c1e6e85a60d67ddf17a606292c714ca966a2720f26884846040516108c4929190610c9c565b60405180910390a150505050565b8280546108de90610e9c565b90600052602060002090601f0160209004810192826109005760008555610947565b82601f1061091957805160ff1916838001178555610947565b82800160010185558215610947579182015b8281111561094657825182559160200191906001019061092b565b5b5090506109549190610958565b5090565b5b80821115610971576000816000905550600101610959565b5090565b600061098861098384610dc5565b610d94565b9050828152602081018484840111156109a057600080fd5b6109ab848285610e5a565b509392505050565b600082601f8301126109c457600080fd5b81356109d4848260208601610975565b91505092915050565b6000602082840312156109ef57600080fd5b600082013567ffffffffffffffff811115610a0957600080fd5b610a15848285016109b3565b91505092915050565b60008060008060808587031215610a3457600080fd5b600085013567ffffffffffffffff811115610a4e57600080fd5b610a5a878288016109b3565b945050602085013567ffffffffffffffff811115610a7757600080fd5b610a83878288016109b3565b935050604085013567ffffffffffffffff811115610aa057600080fd5b610aac878288016109b3565b925050606085013567ffffffffffffffff811115610ac957600080fd5b610ad5878288016109b3565b91505092959194509250565b610aea81610e1c565b82525050565b610af981610e2e565b82525050565b6000610b0a82610df5565b610b148185610e00565b9350610b24818560208601610e69565b610b2d81610f2c565b840191505092915050565b6000610b4382610df5565b610b4d8185610e11565b9350610b5d818560208601610e69565b80840191505092915050565b6000610b76601283610e00565b91507f44494420646f6573206e6f7420657869737400000000000000000000000000006000830152602082019050919050565b6000610bb6602783610e00565b91507f4f6e6c7920746865206973737565722063616e20706572666f726d207468697360008301527f20616374696f6e000000000000000000000000000000000000000000000000006020830152604082019050919050565b6000610c1c601283610e00565b91507f44494420616c72656164792065786973747300000000000000000000000000006000830152602082019050919050565b6000610c5b8284610b38565b915081905092915050565b6000602082019050610c7b6000830184610ae1565b92915050565b6000602082019050610c966000830184610af0565b92915050565b60006040820190508181036000830152610cb68185610aff565b90508181036020830152610cca8184610aff565b90509392505050565b60006080820190508181036000830152610ced8187610aff565b90508181036020830152610d018186610aff565b90508181036040830152610d158185610aff565b90508181036060830152610d298184610aff565b905095945050505050565b60006020820190508181036000830152610d4d81610b69565b9050919050565b60006020820190508181036000830152610d6d81610ba9565b9050919050565b60006020820190508181036000830152610d8d81610c0f565b9050919050565b6000604051905081810181811067ffffffffffffffff82111715610dbb57610dba610efd565b5b8060405250919050565b600067ffffffffffffffff821115610de057610ddf610efd565b5b601f19601f8301169050602081019050919050565b600081519050919050565b600082825260208201905092915050565b600081905092915050565b6000610e2782610e3a565b9050919050565b60008115159050919050565b600073ffffffffffffffffffffffffffffffffffffffff82169050919050565b82818337600083830152505050565b60005b83811015610e87578082015181840152602081019050610e6c565b83811115610e96576000848401525b50505050565b60006002820490506001821680610eb457607f821691505b60208210811415610ec857610ec7610ece565b5b50919050565b7f4e487b7100000000000000000000000000000000000000000000000000000000600052602260045260246000fd5b7f4e487b7100000000000000000000000000000000000000000000000000000000600052604160045260246000fd5b6000601f19601f830116905091905056fea2646970667358221220cde528f8f01d75f856975a26bc93bff6aba387e5c8f9fb5298be56092b4f801864736f6c63430008000033",
  "immutableReferences": {},
  "source": "// SPDX-License-Identifier: MIT\r\npragma solidity ^0.8.0;\r\n\r\ncontract DIDDocument {\r\n\r\n    // Structure to store the DID Document details\r\n    struct DIDDocumentStruct {\r\n        string did;\r\n        string publicKey;\r\n        string controller;           // The controller that can manage this DID\r\n        string verificationMethod;   // Verification method for the DID\r\n        bool exists;                 // Check if DID Document exists\r\n    }\r\n\r\n    // Mapping to associate DID with its corresponding DID Document\r\n    mapping(string => DIDDocumentStruct) private didDocuments;\r\n\r\n    address public issuer; // Address of the institution managing the DIDs\r\n\r\n    // Events triggered when a new DID is created or updated\r\n    event DIDCreated(string did, string publicKey);\r\n    event DIDUpdated(string did, string publicKey);\r\n\r\n    // Modifier to restrict functions to only the issuer\r\n    modifier onlyIssuer() {\r\n        require(msg.sender == issuer, \"Only the issuer can perform this action\");\r\n        _;\r\n    }\r\n\r\n    // Constructor to set the authorized issuer\r\n    constructor() {\r\n        issuer = msg.sender;\r\n    }\r\n\r\n    /**\r\n     * @dev Creates a new DID Document\r\n     * @param did The unique DID identifier\r\n     * @param publicKey The public key associated with the DID\r\n     * @param controller The controller of the DID\r\n     * @param verificationMethod The verification method for the DID\r\n     */\r\n    function createDID(\r\n        string memory did,\r\n        string memory publicKey,\r\n        string memory controller,\r\n        string memory verificationMethod\r\n    ) public onlyIssuer {\r\n        require(!didDocuments[did].exists, \"DID already exists\");\r\n\r\n        didDocuments[did] = DIDDocumentStruct({\r\n            did: did,\r\n            publicKey: publicKey,\r\n            controller: controller,\r\n            verificationMethod: verificationMethod,\r\n            exists: true\r\n        });\r\n\r\n        emit DIDCreated(did, publicKey);\r\n    }\r\n\r\n    /**\r\n     * @dev Updates an existing DID Document\r\n     * @param did The unique DID identifier\r\n     * @param publicKey The new public key associated with the DID\r\n     * @param controller The new controller of the DID\r\n     * @param verificationMethod The new verification method for the DID\r\n     */\r\n    function updateDID(\r\n        string memory did,\r\n        string memory publicKey,\r\n        string memory controller,\r\n        string memory verificationMethod\r\n    ) public onlyIssuer {\r\n        require(didDocuments[did].exists, \"DID does not exist\");\r\n\r\n        didDocuments[did] = DIDDocumentStruct({\r\n            did: did,\r\n            publicKey: publicKey,\r\n            controller: controller,\r\n            verificationMethod: verificationMethod,\r\n            exists: true\r\n        });\r\n\r\n        emit DIDUpdated(did, publicKey);\r\n    }\r\n\r\n    /**\r\n     * @dev Retrieves a DID Document by its DID\r\n     * @param did The unique DID identifier\r\n     * @return The DID Document details\r\n     */\r\n    function getDIDDocument(string memory did) public view returns (\r\n        string memory, string memory, string memory, string memory\r\n    ) {\r\n        require(didDocuments[did].exists, \"DID does not exist\");\r\n\r\n        DIDDocumentStruct memory doc = didDocuments[did];\r\n        return (doc.did, doc.publicKey, doc.controller, doc.verificationMethod);\r\n    }\r\n\r\n    /**\r\n     * @dev Checks if a DID exists\r\n     * @param did The unique DID identifier\r\n     * @return True if the DID exists, false otherwise\r\n     */\r\n    function didExists(string memory did) public view returns (bool) {\r\n        return didDocuments[did].exists;\r\n    }\r\n}\r\n",
  "sourcePath": "C:\\Users\\juanb\\VictoriaUniversity\\NIT6006ITThesis2\\code\\Private-zkEVM\\contracts\\DIDDocument.sol",
  "compiler": {
    "name": "solc",
    "version": "0.8.0+commit.c7dfd78e.Emscripten.clang"
  },
  "schemaVersion": "3.4.16",
  "updatedAt": "2024-09-25T03:28:43.961Z",
  "networkType": "ethereum",
  "devdoc": {
    "kind": "dev",
    "methods": {
      "createDID(string,string,string,string)": {
        "details": "Creates a new DID Document",
        "params": {
          "controller": "The controller of the DID",
          "did": "The unique DID identifier",
          "publicKey": "The public key associated with the DID",
          "verificationMethod": "The verification method for the DID"
        }
      },
      "didExists(string)": {
        "details": "Checks if a DID exists",
        "params": {
          "did": "The unique DID identifier"
        },
        "returns": {
          "_0": "True if the DID exists, false otherwise"
        }
      },
      "getDIDDocument(string)": {
        "details": "Retrieves a DID Document by its DID",
        "params": {
          "did": "The unique DID identifier"
        },
        "returns": {
          "_0": "The DID Document details"
        }
      },
      "updateDID(string,string,string,string)": {
        "details": "Updates an existing DID Document",
        "params": {
          "controller": "The new controller of the DID",
          "did": "The unique DID identifier",
          "publicKey": "The new public key associated with the DID",
          "verificationMethod": "The new verification method for the DID"
        }
      }
    },
    "version": 1
  },
  "userdoc": {
    "kind": "user",
    "methods": {},
    "version": 1
  }
}