{
  "contractName": "SensitiveDataStorage",
  "abi": [
    {
      "anonymous": false,
      "inputs": [
        {
          "indexed": true,
          "internalType": "string",
          "name": "did",
          "type": "string"
        },
        {
          "indexed": false,
          "internalType": "string",
          "name": "name",
          "type": "string"
        },
        {
          "indexed": false,
          "internalType": "string",
          "name": "email",
          "type": "string"
        },
        {
          "indexed": false,
          "internalType": "string",
          "name": "dateOfBirth",
          "type": "string"
        },
        {
          "indexed": false,
          "internalType": "string",
          "name": "phoneNumber",
          "type": "string"
        },
        {
          "indexed": false,
          "internalType": "string",
          "name": "nationality",
          "type": "string"
        },
        {
          "indexed": false,
          "internalType": "string",
          "name": "credentialHash",
          "type": "string"
        }
      ],
      "name": "SensitiveDataRegistered",
      "type": "event"
    },
    {
      "anonymous": false,
      "inputs": [
        {
          "indexed": true,
          "internalType": "string",
          "name": "did",
          "type": "string"
        },
        {
          "indexed": false,
          "internalType": "string",
          "name": "name",
          "type": "string"
        },
        {
          "indexed": false,
          "internalType": "string",
          "name": "email",
          "type": "string"
        },
        {
          "indexed": false,
          "internalType": "string",
          "name": "dateOfBirth",
          "type": "string"
        },
        {
          "indexed": false,
          "internalType": "string",
          "name": "phoneNumber",
          "type": "string"
        },
        {
          "indexed": false,
          "internalType": "string",
          "name": "nationality",
          "type": "string"
        },
        {
          "indexed": false,
          "internalType": "string",
          "name": "credentialHash",
          "type": "string"
        }
      ],
      "name": "SensitiveDataUpdated",
      "type": "event"
    },
    {
      "inputs": [
        {
          "internalType": "string",
          "name": "did",
          "type": "string"
        },
        {
          "internalType": "string",
          "name": "name",
          "type": "string"
        },
        {
          "internalType": "string",
          "name": "email",
          "type": "string"
        },
        {
          "internalType": "string",
          "name": "dateOfBirth",
          "type": "string"
        },
        {
          "internalType": "string",
          "name": "phoneNumber",
          "type": "string"
        },
        {
          "internalType": "string",
          "name": "nationality",
          "type": "string"
        },
        {
          "internalType": "string",
          "name": "credentialHash",
          "type": "string"
        }
      ],
      "name": "setSensitiveData",
      "outputs": [],
      "stateMutability": "nonpayable",
      "type": "function"
    },
    {
      "inputs": [
        {
          "internalType": "string",
          "name": "did",
          "type": "string"
        },
        {
          "internalType": "string",
          "name": "name",
          "type": "string"
        },
        {
          "internalType": "string",
          "name": "email",
          "type": "string"
        },
        {
          "internalType": "string",
          "name": "dateOfBirth",
          "type": "string"
        },
        {
          "internalType": "string",
          "name": "phoneNumber",
          "type": "string"
        },
        {
          "internalType": "string",
          "name": "nationality",
          "type": "string"
        },
        {
          "internalType": "string",
          "name": "credentialHash",
          "type": "string"
        }
      ],
      "name": "updateSensitiveData",
      "outputs": [],
      "stateMutability": "nonpayable",
      "type": "function"
    },
    {
      "inputs": [
        {
          "internalType": "string",
          "name": "did",
          "type": "string"
        }
      ],
      "name": "getSensitiveData",
      "outputs": [
        {
          "internalType": "string",
          "name": "name",
          "type": "string"
        },
        {
          "internalType": "string",
          "name": "email",
          "type": "string"
        },
        {
          "internalType": "string",
          "name": "dateOfBirth",
          "type": "string"
        },
        {
          "internalType": "string",
          "name": "phoneNumber",
          "type": "string"
        },
        {
          "internalType": "string",
          "name": "nationality",
          "type": "string"
        },
        {
          "internalType": "string",
          "name": "credentialHash",
          "type": "string"
        }
      ],
      "stateMutability": "view",
      "type": "function",
      "constant": true
    }
  ],
  "bytecode": "0x608060405234801561001057600080fd5b50610d98806100206000396000f3fe608060405234801561001057600080fd5b50600436106100415760003560e01c8063677beb1c14610046578063685c64d61461006257806382a681971461007e575b600080fd5b610060600480360381019061005b9190610945565b6100b3565b005b61007c60048036038101906100779190610945565b61027f565b005b61009860048036038101906100939190610904565b6103db565b6040516100aa96959493929190610b4c565b60405180910390f35b600080886040516100c49190610b35565b908152602001604051809103902060000180546100e090610cc1565b90501415610123576040517f08c379a000000000000000000000000000000000000000000000000000000000815260040161011a90610bd7565b60405180910390fd5b6040518060c00160405280878152602001868152602001858152602001848152602001838152602001828152506000886040516101609190610b35565b9081526020016040518091039020600082015181600001908051906020019061018a9291906107f9565b5060208201518160010190805190602001906101a79291906107f9565b5060408201518160020190805190602001906101c49291906107f9565b5060608201518160030190805190602001906101e19291906107f9565b5060808201518160040190805190602001906101fe9291906107f9565b5060a082015181600501908051906020019061021b9291906107f9565b509050508660405161022d9190610b35565b60405180910390207f5877206885ca364fedf4342455d09336028e2a5e101c3b5070c3aac4315480be87878787878760405161026e96959493929190610b4c565b60405180910390a250505050505050565b6040518060c00160405280878152602001868152602001858152602001848152602001838152602001828152506000886040516102bc9190610b35565b908152602001604051809103902060008201518160000190805190602001906102e69291906107f9565b5060208201518160010190805190602001906103039291906107f9565b5060408201518160020190805190602001906103209291906107f9565b50606082015181600301908051906020019061033d9291906107f9565b50608082015181600401908051906020019061035a9291906107f9565b5060a08201518160050190805190602001906103779291906107f9565b50905050866040516103899190610b35565b60405180910390207fdc7fc40a9b8615c009e1e0266c04d944f2499960def739662a7cc4afc31392f88787878787876040516103ca96959493929190610b4c565b60405180910390a250505050505050565b606080606080606080600080886040516103f59190610b35565b90815260200160405180910390206040518060c001604052908160008201805461041e90610cc1565b80601f016020809104026020016040519081016040528092919081815260200182805461044a90610cc1565b80156104975780601f1061046c57610100808354040283529160200191610497565b820191906000526020600020905b81548152906001019060200180831161047a57829003601f168201915b505050505081526020016001820180546104b090610cc1565b80601f01602080910402602001604051908101604052809291908181526020018280546104dc90610cc1565b80156105295780601f106104fe57610100808354040283529160200191610529565b820191906000526020600020905b81548152906001019060200180831161050c57829003601f168201915b5050505050815260200160028201805461054290610cc1565b80601f016020809104026020016040519081016040528092919081815260200182805461056e90610cc1565b80156105bb5780601f10610590576101008083540402835291602001916105bb565b820191906000526020600020905b81548152906001019060200180831161059e57829003601f168201915b505050505081526020016003820180546105d490610cc1565b80601f016020809104026020016040519081016040528092919081815260200182805461060090610cc1565b801561064d5780601f106106225761010080835404028352916020019161064d565b820191906000526020600020905b81548152906001019060200180831161063057829003601f168201915b5050505050815260200160048201805461066690610cc1565b80601f016020809104026020016040519081016040528092919081815260200182805461069290610cc1565b80156106df5780601f106106b4576101008083540402835291602001916106df565b820191906000526020600020905b8154815290600101906020018083116106c257829003601f168201915b505050505081526020016005820180546106f890610cc1565b80601f016020809104026020016040519081016040528092919081815260200182805461072490610cc1565b80156107715780601f1061074657610100808354040283529160200191610771565b820191906000526020600020905b81548152906001019060200180831161075457829003601f168201915b5050505050815250509050600081600001515114156107c5576040517f08c379a00000000000000000000000000000000000000000000000000000000081526004016107bc90610bd7565b60405180910390fd5b806000015181602001518260400151836060015184608001518560a001519650965096509650965096505091939550919395565b82805461080590610cc1565b90600052602060002090601f016020900481019282610827576000855561086e565b82601f1061084057805160ff191683800117855561086e565b8280016001018555821561086e579182015b8281111561086d578251825591602001919060010190610852565b5b50905061087b919061087f565b5090565b5b80821115610898576000816000905550600101610880565b5090565b60006108af6108aa84610c28565b610bf7565b9050828152602081018484840111156108c757600080fd5b6108d2848285610c7f565b509392505050565b600082601f8301126108eb57600080fd5b81356108fb84826020860161089c565b91505092915050565b60006020828403121561091657600080fd5b600082013567ffffffffffffffff81111561093057600080fd5b61093c848285016108da565b91505092915050565b600080600080600080600060e0888a03121561096057600080fd5b600088013567ffffffffffffffff81111561097a57600080fd5b6109868a828b016108da565b975050602088013567ffffffffffffffff8111156109a357600080fd5b6109af8a828b016108da565b965050604088013567ffffffffffffffff8111156109cc57600080fd5b6109d88a828b016108da565b955050606088013567ffffffffffffffff8111156109f557600080fd5b610a018a828b016108da565b945050608088013567ffffffffffffffff811115610a1e57600080fd5b610a2a8a828b016108da565b93505060a088013567ffffffffffffffff811115610a4757600080fd5b610a538a828b016108da565b92505060c088013567ffffffffffffffff811115610a7057600080fd5b610a7c8a828b016108da565b91505092959891949750929550565b6000610a9682610c58565b610aa08185610c63565b9350610ab0818560208601610c8e565b610ab981610d51565b840191505092915050565b6000610acf82610c58565b610ad98185610c74565b9350610ae9818560208601610c8e565b80840191505092915050565b6000610b02602083610c63565b91507f4461746120666f7220746869732044494420646f6573206e6f742065786973746000830152602082019050919050565b6000610b418284610ac4565b915081905092915050565b600060c0820190508181036000830152610b668189610a8b565b90508181036020830152610b7a8188610a8b565b90508181036040830152610b8e8187610a8b565b90508181036060830152610ba28186610a8b565b90508181036080830152610bb68185610a8b565b905081810360a0830152610bca8184610a8b565b9050979650505050505050565b60006020820190508181036000830152610bf081610af5565b9050919050565b6000604051905081810181811067ffffffffffffffff82111715610c1e57610c1d610d22565b5b8060405250919050565b600067ffffffffffffffff821115610c4357610c42610d22565b5b601f19601f8301169050602081019050919050565b600081519050919050565b600082825260208201905092915050565b600081905092915050565b82818337600083830152505050565b60005b83811015610cac578082015181840152602081019050610c91565b83811115610cbb576000848401525b50505050565b60006002820490506001821680610cd957607f821691505b60208210811415610ced57610cec610cf3565b5b50919050565b7f4e487b7100000000000000000000000000000000000000000000000000000000600052602260045260246000fd5b7f4e487b7100000000000000000000000000000000000000000000000000000000600052604160045260246000fd5b6000601f19601f830116905091905056fea264697066735822122011737758de4b9a36074bd817651f316d1dc76599b59525b112a0a10e08dd84af64736f6c63430008000033",
  "immutableReferences": {},
  "source": "// SPDX-License-Identifier: MIT\r\npragma solidity ^0.8.0;\r\n\r\ncontract SensitiveDataStorage {\r\n\r\n    struct SensitiveData {\r\n        string name;\r\n        string email;\r\n        string dateOfBirth;\r\n        string phoneNumber;\r\n        string nationality;\r\n        string credentialHash;\r\n    }\r\n\r\n    mapping(string => SensitiveData) private sensitiveDataByDID;\r\n\r\n    event SensitiveDataRegistered(\r\n        string indexed did,\r\n        string name,\r\n        string email,\r\n        string dateOfBirth,\r\n        string phoneNumber,\r\n        string nationality,\r\n        string credentialHash\r\n    );\r\n\r\n    event SensitiveDataUpdated(\r\n        string indexed did,\r\n        string name,\r\n        string email,\r\n        string dateOfBirth,\r\n        string phoneNumber,\r\n        string nationality,\r\n        string credentialHash\r\n    );\r\n\r\n    // Function to set sensitive data (No DID existence check)\r\n    function setSensitiveData(\r\n        string memory did,\r\n        string memory name,\r\n        string memory email,\r\n        string memory dateOfBirth,\r\n        string memory phoneNumber,\r\n        string memory nationality,\r\n        string memory credentialHash\r\n    ) public {\r\n        sensitiveDataByDID[did] = SensitiveData(name, email, dateOfBirth, phoneNumber, nationality, credentialHash);\r\n        emit SensitiveDataRegistered(did, name, email, dateOfBirth, phoneNumber, nationality, credentialHash);\r\n    }\r\n\r\n    // Function to update existing sensitive data\r\n    function updateSensitiveData(\r\n        string memory did,\r\n        string memory name,\r\n        string memory email,\r\n        string memory dateOfBirth,\r\n        string memory phoneNumber,\r\n        string memory nationality,\r\n        string memory credentialHash\r\n    ) public {\r\n        require(bytes(sensitiveDataByDID[did].name).length != 0, \"Data for this DID does not exist\");\r\n        sensitiveDataByDID[did] = SensitiveData(name, email, dateOfBirth, phoneNumber, nationality, credentialHash);\r\n        emit SensitiveDataUpdated(did, name, email, dateOfBirth, phoneNumber, nationality, credentialHash);\r\n    }\r\n\r\n    // Function to retrieve sensitive data by DID\r\n    function getSensitiveData(string memory did)\r\n        public\r\n        view\r\n        returns (\r\n            string memory name,\r\n            string memory email,\r\n            string memory dateOfBirth,\r\n            string memory phoneNumber,\r\n            string memory nationality,\r\n            string memory credentialHash\r\n        )\r\n    {\r\n        SensitiveData memory data = sensitiveDataByDID[did];\r\n        require(bytes(data.name).length != 0, \"Data for this DID does not exist\");\r\n\r\n        return (data.name, data.email, data.dateOfBirth, data.phoneNumber, data.nationality, data.credentialHash);\r\n    }\r\n}\r\n",
  "sourcePath": "C:\\Users\\juanb\\VictoriaUniversity\\NIT6006ITThesis2\\code\\Private-zkEVM\\contracts\\SensitiveData.sol",
  "compiler": {
    "name": "solc",
    "version": "0.8.0+commit.c7dfd78e.Emscripten.clang"
  },
  "schemaVersion": "3.4.16",
  "updatedAt": "2024-09-25T03:28:43.968Z",
  "networkType": "ethereum",
  "devdoc": {
    "kind": "dev",
    "methods": {},
    "version": 1
  },
  "userdoc": {
    "kind": "user",
    "methods": {},
    "version": 1
  }
}